:100000000C94FD000C941A010C941A010C941A0122
:100010000C941A010C941A010C941A010C941A01F4
:100020000C941A010C941A010C941A010C941A01E4
:100030000C941A010C941A010C9454010C941A019A
:100040000C941A010C941A010C941A010C941A01C4
:100050000C941A010C941A010C941A010C941A01B4
:100060000C9480030C941A017104750475047504D2
:100070007504750475047504A0037504750475048E
:100080007504750475047504A0037504750475047E
:100090007504750475047504A80375047504750466
:1000A0007504750475047504C1037504750475043D
:1000B0007504750475047504A80375047504750446
:1000C0007504750475047504C70375047504750417
:1000D0007504750475047504CD0375047504750401
:1000E0007504750475047504DF03750475047504DF
:1000F0007504750475047504F903750475047504B5
:100100007504750475047504D303750475047504CA
:100110007504750475047504ED03750475047504A0
:100120007504750475047504FC0375047504750481
:100130007504750475047504FC0375047504750471
:100140007504750475047504FC0375047504750461
:100150007504750475047504FC0375047504750451
:100160007504750475047504050475047504750437
:1001700075047504750475043804750475047504F4
:100180007504750475047504050475047504750417
:1001900075047504750475043804750475047504D4
:1001A00075047504750475041D04750475047504DF
:1001B00075047504750475043C04750475047504B0
:1001C00075047504750475043C04750475047504A0
:1001D000750475047504750451047504750475047B
:1001E00075047504750475046B0475047504750451
:1001F00075047504750475046B0411241FBECFEFDC
:10020000D4E0DEBFCDBF11E0A0E0B1E0EAEAFFE05C
:1002100002C005900D92AC33B107D9F722E0ACE3F0
:10022000B1E001C01D92A932B207E1F70E947F013F
:100230000C94D3070C940000CF93DF939091B601F8
:10024000992389F020E0E0ECF0E0C6ECD0E080817A
:1002500085FFFDCF98832F5FA22FB0E0AA54BE4F39
:100260009C919111F4CFDF91CF91089581E084B9F1
:1002700015B81092C50087E68093C40082E0809391
:10028000C00088E18093C10086E08093C20080EFC7
:1002900087BD82E884BD85E085BDEEE6F0E0808123
:1002A00082608083789408951F920F920FB60F9208
:1002B00011248F939F9380913E0190913F0101966D
:1002C00090933F0180933E0180913E0190913F01C8
:1002D0000F9771F410923F0110923E0195B181E0A9
:1002E000892785B981E090E090933D0180933C019E
:1002F0009F918F910F900FBE0F901F9018950E94A5
:1003000036010E9401028CE0E5E1F1E0A6EBB1E0EC
:1003100001900D928A95E1F70E941C0188E0E1E2CC
:10032000F1E0A6EBB1E001900D928A95E1F70E9411
:100330001C0189E0E9E2F1E0A6EBB1E001900D9249
:100340008A95E1F70E941C0102E311E0C6EBD1E0BF
:1003500080913C0190913D010197D1F70E942F02BD
:10036000FC0181818F9380818F9383818F93828120
:100370008F9385818F9384818F931F930F93DF9346
:10038000CF930E94E9040E941C0110923D0110923B
:100390003C018DB79EB70A960FB6F8949EBF0FBE6C
:1003A0008DBFD6CF982F92959F70990F292F220F2E
:1003B000220F920F8F70890F0895CF93C82F88E670
:1003C0000E9493048C2F0E94AD040E949D0461E062
:1003D00088E60E9486040E94D204CF910895CF93AC
:1003E000DF93C82FD62F88E60E9493048D2F0E949A
:1003F000AD048C2F0E94AD040E949D04DF91CF912B
:100400000895CF93DF9381E10E94DD01D82F82E12F
:100410000E94DD01C82F61E18EEE0E94EF0162E1D2
:100420008DED0E94EF0181E10E94DD018E3E89F495
:1004300082E10E94DD018D3D61F481E08093410104
:1004400061E18D2F0E94EF0162E18C2F0E94EF018C
:1004500003C081E080934001DF91CF910895DF9246
:10046000EF92FF920F931F93CF93DF93CDB7DEB739
:1004700029970FB6F894DEBF0FBECDBF88E60E9465
:10048000930480E00E94AD040E949D0467E088E62A
:100490000E9486048E010F5F1F4F7E0188E0E80EE8
:1004A000F11C0E94D204F80181938F01EE15FF0523
:1004B000C1F70E949D0489818F770E94D2010F2E7F
:1004C000F4EDEF2EF1E0FF2EF02D90E0F701918397
:1004D00080838A810E94D20190E0F7019383828316
:1004E0008B810E94D201082F10E0F701158304834D
:1004F0008D810E94D20190E0F70197838683DE8090
:100500008D2D8F710E94D20190E0F7019187808735
:10051000DD203CF48F810E94D20190E08053984FFF
:1005200006C08F810E94D20190E08459984F0F2E0F
:10053000F4EDEF2EF1E0FF2EF02DF7019387828787
:100540008C810E94D20190E0F70195878487011584
:10055000110529F4108A178681E0868711C00C30B6
:1005600011053CF4E4EDF1E0108B078781E086870C
:1005700007C0E4EDF1E00C501109108B07871686D7
:1005800084ED91E029960FB6F894DEBF0FBECDBF83
:10059000DF91CF911F910F91FF90EF90DF90089521
:1005A000413290F59091AD019111FCCF21E0209363
:1005B000AD012FEF2093420110928701240F209369
:1005C0008601880F81608093AC0185EE8093BC002A
:1005D0008091AD018130E1F380918701841710F49F
:1005E00040918701442389F0E8E8F1E0A62FB72F76
:1005F0002FEF240F30E027573E4F81918D93E21764
:10060000F307D9F7942F01C090E0892F0895413264
:10061000F0F53091AD013111FCCF92E09093AD0136
:100620009FEF9093420110928701409386014423EB
:1006300071F0FB01A8E8B1E0415050E04F5F5F4F1F
:10064000640F751F91919D93E617F707D9F790E016
:10065000880F991F8093AC0185EE8093BC00222304
:1006600041F08091AD01823021F48091AD01823062
:10067000E1F3809142018F3F79F080914201803215
:1006800041F080914201803331F034E005C031E027
:1006900003C032E001C033E0832F08956132C8F413
:1006A0002091AD012430B9F4609364016623A9F070
:1006B000FC01A6E6B1E06150262F30E02F5F3F4FEE
:1006C000280F391F91919D93E217F307D9F780E026
:1006D000089581E0089582E0089580E0089585ED11
:1006E0008093BC00ECEBF0E0808184FDFDCF1092A4
:1006F000AD01089585EC8093BC001092AD01089582
:100700001F920F920FB60F9211242F933F934F9386
:100710005F936F937F938F939F93AF93BF93EF9369
:10072000FF938091B900E82FE87F8E2F90E0893CFD
:10073000910508F0DAC0FC01EC5CFF4F0C94E30477
:100740008091AC018093BB0085EC8093BC00CDC050
:100750009091870180918601981780F4E09187013C
:1007600081E08E0F80938701F0E0E857FE4F808193
:100770008093BB0085EC8093BC00B7C00E946F03E0
:10078000B4C080E2809342010E946F03AEC080E358
:10079000809342010E946F03A8C088E380934201C6
:1007A0000E947A03A2C0E091870181E08E0F8093BE
:1007B00087018091BB00F0E0E857FE4F8083909165
:1007C000870180918601981720F485EC8093BC0006
:1007D0008CC085E88093BC0088C0E091870181E0EF
:1007E0008E0F809387018091BB00F0E0E857FE4FA9
:1007F00080830E946F0379C083E08093AD011092E3
:10080000430185EC8093BC0070C08091430180322D
:1008100080F4E091430181E08E0F80934301809149
:10082000BB00F0E0EC5BFE4F808385EC8093BC0066
:100830005CC085E88093BC0058C080914301803241
:1008400030F4E0914301F0E0EC5BFE4F10820E9437
:100850006F036091430170E0E091A801F091A9015C
:1008600084E491E00995109243010E947A033DC00F
:1008700085E88093BC0039C084E08093AD0110927C
:10088000650110926401E091AA01F091AB01099514
:1008900080916401811105C081E080936401109210
:1008A0006601E091650181E08E0F80936501F0E0C3
:1008B000EA59FE4F80818093BB0090916501809141
:1008C0006401981720F485EC8093BC000EC085E885
:1008D0008093BC000AC085EC8093BC001092AD01EF
:1008E00004C0109242010E946F03FF91EF91BF91EB
:1008F000AF919F918F917F916F915F914F913F91B8
:100900002F910F900FBE0F901F901895462F6132B8
:1009100008F040E267EE71E00E94D0021092B3014D
:100920008093B201089591E09093AE018093B1015C
:100930001092B0011092AF01089521E04091AF01F3
:1009400067E072E08091B1010E9407031092B0014C
:100950001092AF011092AE010895CF93DF931F92D2
:10096000CDB7DEB789838091AE01882391F0809165
:10097000AF01803298F48091B001E82FF0E0E95F98
:10098000FD4F998190838F5F8093B0018093AF0179
:1009900005C061E0CE0101960E944E030F90DF91E9
:1009A000CF9108959091B3018091B201981748F4C6
:1009B000E92FF0E0E951FE4F80819F5F9093B301F2
:1009C000089580E00895EE0FFF1F0590F491E02D4B
:1009D0000994AEE0B0E0EFEEF4E00C94AA070D89C4
:1009E0001E8986E08C831A8309838FEF9FE79E839D
:1009F0008D83AE01475E5F4F6F89788DCE01019682
:100A00000E940B05EF81F885E00FF11F10822E96F2
:100A1000E4E00C94C607ABE0B0E0E1E1F5E00C9453
:100A20009C076C017B018A01FC011782168283817D
:100A300081FFCCC1CE0101963C01F6019381F70103
:100A400093FD859193FF81917F01882309F4BAC1B9
:100A5000853239F493FD859193FF81917F01853231
:100A600029F4B60190E00E940207E7CF912C212CD7
:100A7000312CFFE1F315D8F08B3279F038F4803265
:100A800079F08332A1F4232D20611DC08D3261F0F5
:100A9000803369F4232D216016C0832D8260382EA7
:100AA000E32DE4603E2E2AC0F32DF8601DC037FC14
:100AB0002DC020ED280F2A3040F08E32B9F436FCDC
:100AC00081C1232D2064322E19C036FE06C08AE073
:100AD000989E200D1124922E11C0EAE02E9E200D2A
:100AE0001124222EF32DF0623F2E08C08C3621F403
:100AF000832D8068382E02C0883641F4F70193FDBB
:100B0000859193FF81917F018111B3CF982F9F7DB4
:100B10009554933028F40C5F1F4F9FE399830DC0C9
:100B2000833631F0833771F0833509F059C021C025
:100B3000F801808189830E5F1F4F88248394912C54
:100B4000530113C02801F2E04F0E511CF801A080A0
:100B5000B18036FE03C0692D70E002C06FEF7FEFF9
:100B6000C5010E94F7064C018201F32DFF773F2E4D
:100B700016C0280122E0420E511CF801A080B1806D
:100B800036FE03C0692D70E002C06FEF7FEFC50134
:100B90000E94EC064C01F32DF0683F2E820133FCDD
:100BA0001BC0822D90E088169906B0F4B60180E251
:100BB00090E00E9402072A94F4CFF50137FC85915A
:100BC00037FE81915F01B60190E00E94020721107B
:100BD0002A9421E0821A91088114910471F7E8C0E7
:100BE000843611F0893641F5F80137FE07C060817F
:100BF0007181828193810C5F1F4F08C06081718178
:100C0000072E000C880B990B0E5F1F4FF32DFF76FC
:100C10003F2E97FF09C090958095709561957F4F05
:100C20008F4F9F4FF0683F2E2AE030E0A3010E94D3
:100C30003E07882E861845C0853731F4232D2F7E38
:100C4000B22E2AE030E025C0932D997FB92E8F3641
:100C5000C1F018F4883579F0B5C0803719F08837BD
:100C600021F0B0C0E92FE061BE2EB4FE0DC0FB2D17
:100C7000F460BF2E09C034FE0AC0292F2660B22EB0
:100C800006C028E030E005C020E130E002C020E1ED
:100C900032E0F801B7FE07C06081718182819381E3
:100CA0000C5F1F4F06C06081718180E090E00E5F95
:100CB0001F4FA3010E943E07882E8618FB2DFF7749
:100CC0003F2E36FE0DC0232D2E7FA22E891458F400
:100CD00034FE0BC032FC09C0832D8E7EA82E05C0C9
:100CE000B82CA32C03C0B82C01C0B92CA4FE0FC093
:100CF000FE01E80DF11D8081803321F49A2D997E4B
:100D0000A92E09C0A2FE06C0B394B39404C08A2DD4
:100D1000867809F0B394A3FC11C0A0FE06C0B214FB
:100D200088F4280C922C9B180EC0B21460F4B60103
:100D300080E290E00E940207B394F7CFB21418F457
:100D40002B1802C0982C212CA4FE10C0B60180E301
:100D500090E00E940207A2FE17C0A1FC03C088E732
:100D600090E002C088E590E0B6010CC08A2D86783C
:100D700059F0A1FE02C08BE201C080E2A7FC8DE227
:100D8000B60190E00E940207891438F4B60180E3AE
:100D900090E00E9402079A94F7CF8A94F301E80D3D
:100DA000F11D8081B60190E00E9402078110F5CF0D
:100DB000222009F442CEB60180E290E00E940207B0
:100DC0002A94F6CFF6018681978102C08FEF9FEFBC
:100DD0002B96E2E10C94B807FC010590615070403D
:100DE0000110D8F7809590958E0F9F1F0895FC01F4
:100DF0006150704001900110D8F7809590958E0F4A
:100E00009F1F08950F931F93CF93DF93FB012381BF
:100E100021FD03C08FEF9FEF2CC022FF16C046813B
:100E20005781248135814217530744F4A081B18151
:100E30009D012F5F3F4F318320838C932681378123
:100E40002F5F3F4F3783268314C08B01EC01FB01DA
:100E50000084F185E02D0995892BE1F6D8011696DD
:100E60008D919C911797019617969C938E93169748
:100E7000CE01DF91CF911F910F910895FA01AA271A
:100E8000283051F1203181F1E8946F936E7F6E5FCD
:100E90007F4F8F4F9F4FAF4FB1E03ED0B4E03CD07B
:100EA000670F781F891F9A1FA11D680F791F8A1F5E
:100EB000911DA11D6A0F711D811D911DA11D20D0C5
:100EC00009F468943F912AE0269F11243019305D7F
:100ED0003193DEF6CF010895462F4770405D419370
:100EE000B3E00FD0C9F7F6CF462F4F70405D4A33BD
:100EF00018F0495D31FD4052419302D0A9F7EACF85
:100F0000B4E0A6959795879577956795BA95C9F7B3
:100F100000976105710508959B01AC010A2E0694A6
:100F20005795479537952795BA95C9F7620F731F5F
:100F3000841F951FA01D08952F923F924F925F929C
:100F40006F927F928F929F92AF92BF92CF92DF92D9
:100F5000EF92FF920F931F93CF93DF93CDB7DEB73E
:100F6000CA1BDB0B0FB6F894DEBF0FBECDBF0994D2
:100F70002A88398848885F846E847D848C849B8429
:100F8000AA84B984C884DF80EE80FD800C811B8137
:100F9000AA81B981CE0FD11D0FB6F894DEBF0FBE66
:0A0FA000CDBFED010895F894FFCFD6
:100FAA00445320525443204C69627261727920542E
:100FBA006573740A00416674657220496E69740A21
:100FCA00004453333233310A002D2D2D2D2D2D2D72
:0C0FDA002D0025643A25643A25640A00C5
:040000030000026C8B
:00000001FF
