:100000000C9434000C9446000C9446000C9446006A
:100010000C9446000C9446000C9446000C94460048
:100020000C9446000C9446000C9446000C94460038
:100030000C9446000C9446000C9466000C94460008
:100040000C9446000C9446000C9446000C94460018
:100050000C9446000C9446000C9446000C94460008
:100060000C9446000C94460011241FBECFEFD4E040
:10007000DEBFCDBF21E0A0E0B1E001C01D92A23003
:10008000B207E1F70E948B000C948E000C940000E4
:1000900081E084B915B88093C5008FE98093C400CE
:1000A00082E08093C00088E98093C10086E080935D
:1000B000C20080EF87BD82E884BD85E085BDEEE6A5
:1000C000F0E0808182608083789408951F920F927F
:1000D0000FB60F9211248F939F93809100019091FE
:1000E000010101969093010180930001809100012C
:1000F000909101010F9741F41092010110920001BB
:1001000095B181E0892785B99F918F910F900FBE9E
:100110000F901F9018950E944800FFCFF894FFCFD2
:040000030000009069
:00000001FF
