S00B00006F6C612E73726563DD
S11300000C9484010C94A1010C94A1010C94A10101
S11300100C94A1010C94A1010C94A1010C94A101D4
S11300200C94A1010C94A1010C94A1010C94A101C4
S11300300C94A1010C94A1010C94A1010C94A101B4
S11300400C94EB010C94A1010C94A1010C94A1015A
S11300500C9417020C94A1010C94A1010C94A1011D
S11300600C94A1010C94A1010C94CD040C94A10155
S11300700C942C020C94A1010C94A101BE05C205A0
S1130080C205C205C205C205C205C205ED04C2050A
S1130090C205C205C205C205C205C205ED04C205FA
S11300A0C205C205C205C205C205C205F504C205E2
S11300B0C205C205C205C205C205C2050E05C205B8
S11300C0C205C205C205C205C205C205F504C205C2
S11300D0C205C205C205C205C205C2051405C20592
S11300E0C205C205C205C205C205C2051A05C2057C
S11300F0C205C205C205C205C205C2052C05C2055A
S1130100C205C205C205C205C205C2054605C2052F
S1130110C205C205C205C205C205C2052005C20545
S1130120C205C205C205C205C205C2053A05C2051B
S1130130C205C205C205C205C205C2054905C205FC
S1130140C205C205C205C205C205C2054905C205EC
S1130150C205C205C205C205C205C2054905C205DC
S1130160C205C205C205C205C205C2054905C205CC
S1130170C205C205C205C205C205C2055205C205B3
S1130180C205C205C205C205C205C2058505C20570
S1130190C205C205C205C205C205C2055205C20593
S11301A0C205C205C205C205C205C2058505C20550
S11301B0C205C205C205C205C205C2056A05C2055B
S11301C0C205C205C205C205C205C2058905C2052C
S11301D0C205C205C205C205C205C2058905C2051C
S11301E0C205C205C205C205C205C2059E05C205F7
S11301F0C205C205C205C205C205C205B805C205CD
S1130200C205C205C205C205C205C205B805004043
S11302107A10F35A00A0724E18090010A5D4E80011
S113022000E87648170000E40B54020000CA9A3B29
S1130230000000E1F50500008096980000004042AF
S11302400F000000A086010000001027000000003D
S1130250E803000000006400000000000A00000041
S113026000000100000000002C76D888DC674F08ED
S113027023DFC1DFAE59E1B1B796E5E3E453C63AF3
S1130280E651997696E8E6C28426EB898C9B62ED6A
S1130290407C6FFCEFBC9C9F40F2BAA56FA5F49024
S11302A0055A2AF75C936B6CF9676DC11BFCE0E49B
S11302B00D47FEF520E6B500D0ED902E03009435F1
S11302C077050080841E080000204E0A000000C844
S11302D00C333333330F986E12831141EF8D211495
S11302E0893BE65516CFFEE6DB18D1844B381BF765
S11302F07C1D901DA4BBE424203284725E22810004
S1130300C9F124ECA1E53D2711241FBECFEFD8E0AD
S1130310DEBFCDBF11E0A0E0B1E0ECEFF9E102C037
S113032005900D92A83DB107D9F722E0A8EDB1E000
S113033001C01D92AD3FB207E1F70E94CE020C94BA
S1130340FC0C0C94000084B1876084B91092C50041
S11303508AE28093C40082E08093C00098E990937D
S1130360C10086E08093C2001092CD0021E8209362
S1130370CC001092C8009093C9008093CA0082EC0C
S113038087BD82E884BD84E085BDEEE6F0E080812F
S1130390826080831092B90081E18093B8008CE67A
S11303A099E0A9EFBBE38093660290936702A09360
S11303B06802B093690280E49AEDAFE7B8E38093F2
S11303C0990290939A02A0939B02B0939C028FB7D8
S11303D080688FBF08951F920F920FB60F92112459
S11303E08F938091D9018F5F8093D9018091D80137
S11303F08F5F8093D8018091D901883C39F41092A1
S1130400D901809196028460809396028091D801EC
S1130410893139F41092D8018091960288608093D2
S113042096028F910F900FBE0F901F9018951F92F8
S11304300F920FB60F9211248F93809196028160D0
S1130440809396028091C600809371028F910F90E1
S11304500FBE0F901F9018951F920F920FB60F9218
S113046011248F93809196028260809396028091EA
S1130470CE0080937A028F910F900FBE0F901F9041
S11304801895CF93DF939091A102992389F020E0EE
S1130490E0ECF0E0C6ECD0E0808185FFFDCF9883EE
S11304A02F5FA22FB0E0AF55BD4F9C919111F4CFB7
S11304B0DF91CF910895CF93DF93909148029923D0
S11304C089F020E0E8ECF0E0CEECD0E0808185FF1C
S11304D0FDCF98832F5FA22FB0E0A85BBD4F9C9106
S11304E09111F4CFDF91CF91089580E1E0E0F1E044
S11304F0A1EAB2E001900D928A95E1F70E944102CF
S113050087E2E0E1F1E0A1EAB2E001900D928A9580
S1130510E1F70E9441028AE2E7E3F1E0A1EAB2E0F6
S113052001900D928A95E1F70E9441020E948B0688
S113053060E080E00E94140681E691E00E94A60635
S113054060E081E00E94140681E791E00E94A60623
S113055088E791E00E94A60660E082E00E9414060B
S113056080E891E00E94A60660E083E00E94140601
S113057081E791E00E94A6068EE891E00E94A6061B
S11305802FEF3CE281E391E02150304080409040E5
S1130590D9F700C000000E948B0608950E949006BF
S11305A00E94A3010E94750280ED0E94E2038093E1
S11305B0CF028091CF02882371F10E94E5031F923C
S11305C080ED8F9386E991E09F938F9388E492E086
S11305D09F938F930E94E0070E945B020F900F90FD
S11305E00F900F900F900F90992493940F2EFBEB84
S11305F0AF2EF1E0BF2EF02DC8E4D2E00F2EF4ECC4
S1130600CF2EF1E0DF2EF02D0F2EFDECEF2EF1E0DA
S1130610FF2EF02D1EC01F9280ED8F938EEA91E085
S11306209F938F9388E492E09F938F930E94E007B7
S11306300E945B028BE60E94EE0380E00E94EE03C0
S11306400E94E5030F900F900F900F900F900F9062
S1130650CBCF46E752E062EF72E084E892E00E947A
S113066016048091960282FFF4CF809196028B7FCC
S11306708093960285B1892585B960918402709131
S1130680850280918602909187020DE712E022E0B4
S113069044E00E94C0076091F2027091F3028091DD
S11306A0F4029091F5020FEB12E022E044E00E9484
S11306B0C0076091760270917702809178029091E0
S11306C0790208E812E022E043E00E94C0078DE7C7
S11306D092E09F938F93BF92AF92DF93CF930E9448
S11306E0E0070E945B028FEB92E09F938F93DF926F
S11306F0CF92DF93CF930E94E0070E945B02C80170
S11307009F930F93FF92EF92DF93CF930E94E007A2
S11307100E945B028DB79EB742960FB6F8949EBFB7
S11307200FBE8DBF96CF94EA9093BC00ECEBF0E043
S113073090819923ECF79091B900987F983011F04B
S11307409031A1F48093BB0084E88093BC00ECEB6F
S1130750F0E080818823ECF79091B900987F98317C
S113076039F081E0903429F480E0089581E008951F
S113077080E00895CF93DF93ECEBF0E024EAA9EB5B
S1130780B0E0CBEBD0E034E844E9208390819923B6
S1130790ECF79C91987F983011F09031B1F78883F1
S11307A0308390819923ECF79C91987F903211F0DB
S11307B0983529F44083908194FDFDCFE6CFDF91F5
S11307C0CF9108950E949303089584E98093BC0017
S11307D0ECEBF0E0808184FDFDCF08958093BB00B5
S11307E084E88093BC00ECEBF0E080818823ECF794
S11307F09091B900987F81E0983209F480E00895DF
S113080084EC8093BC00ECEBF0E080818823ECF76F
S11308108091BB00089584E88093BC00ECEBF0E089
S113082080818823ECF78091BB0008958F929F927A
S1130830AF92BF92CF92DF92EF92FF920F931F93EA
S1130840CF93DF937C018B01EA0180ED0E94BA0310
S11308508BE30E94EE0381ED0E94E2030E940004F8
S1130860882E0E940004B82E0E940004982E0E9434
S11308700004D82E0E940004C82E0E940B04A82E47
S11308800E94E5036B2D70E078297093E902609370
S1130890E8028D2D90E0992990939502809394021B
S11308A08A2D90E09C2990937C0280937B02072EF2
S11308B0000C880B990B0E94C1062091990230917B
S11308C09A0240919B0250919C020E94FC0629E7E7
S11308D039EE4CE151E40E94FC06F7016083718318
S11308E0828393836091940270919502072E000C89
S11308F0880B990B0E94C1062091990230919A02AB
S113090040919B0250919C020E94FC0629E739EE1B
S11309104CE151E40E94FC06F801608371838283F8
S1130920938360917B0270917C02072E000C880BEC
S1130930990B0E94C1062091990230919A0240912C
S11309409B0250919C020E94FC0629E739EE4CE17F
S113095051E40E94FC06688379838A839B83DF9138
S1130960CF911F910F91FF90EF90DF90CF90BF90A8
S1130970AF909F908F90089585ED8093BC00ECEB31
S1130980F0E0808184FDFDCF10924502089585EC4E
S11309908093BC001092450208951F920F920FB6E7
S11309A00F9211242F933F934F935F936F937F93F1
S11309B08F939F93AF93BF93EF93FF938091B9006D
S11309C0E82FE87F8E2F90E0893C910508F0DAC08B
S11309D0FC01E25CFF4F0C94BA07809144028093BF
S11309E0BB0085EC8093BC00CDC090911F02809128
S11309F01E02981780F4E0911F0281E08E0F80930D
S1130A001F02F0E0E05EFD4F80818093BB0085EC27
S1130A108093BC00B7C00E94BC04B4C080E2809341
S1130A20DA010E94BC04AEC080E38093DA010E9424
S1130A30BC04A8C088E38093DA010E94C704A2C062
S1130A40E0911F0281E08E0F80931F028091BB0012
S1130A50F0E0E05EFD4F808390911F0280911E02C2
S1130A60981720F485EC8093BC008CC085E88093B3
S1130A70BC0088C0E0911F0281E08E0F80931F02AA
S1130A808091BB00F0E0E05EFD4F80830E94BC04D7
S1130A9079C083E0809345021092DB0185EC80935A
S1130AA0BC0070C08091DB01803280F4E091DB01F6
S1130AB081E08E0F8093DB018091BB00F0E0E45273
S1130AC0FE4F808385EC8093BC005CC085E88093F6
S1130AD0BC0058C08091DB01803230F4E091DB012E
S1130AE0F0E0E452FE4F10820E94BC046091DB01EE
S1130AF070E0E0914002F09141028CED91E00995A3
S1130B001092DB010E94C7043DC085E88093BC00BD
S1130B1039C084E0809345021092FD011092FC01DB
S1130B20E0914202F091430209958091FC01811108
S1130B3005C081E08093FC011092FE01E091FD016B
S1130B4081E08E0F8093FD01F0E0E250FE4F808142
S1130B508093BB009091FD018091FC01981720F4D3
S1130B6085EC8093BC000EC085E88093BC000AC06D
S1130B7085EC8093BC001092450204C01092DA0107
S1130B800E94BC04FF91EF91BF91AF919F918F910F
S1130B907F916F915F914F913F912F910F900FBE75
S1130BA00F901F90189527E030E090E05E98AC011C
S1130BB0022E02C0559547950A94E2F740FF02C001
S1130BC05D9A01C05D985E9A2150310978F70895C5
S1130BD0CF93C82F88EF0E94D3058C2F807F0E946B
S1130BE0D3058C2F8295807F0E94D30587E691E000
S1130BF00197F1F700C00000CF910895CF93C82F5B
S1130C008AEF0E94D3058C2F807F0E94D3058C2FFE
S1130C108295807F0E94D30587E691E00197F1F7E2
S1130C2000C00000CF910895CF93DF93C82FD62F33
S1130C3080E30E94E805C13071F01CF4CC2331F04C
S1130C4018C0C23069F0C33081F013C080E88D0F42
S1130C500E94E8050EC080E98D0F0E94E80509C0D6
S1130C6088E88D0F0E94E80504C088E98D0F0E9472
S1130C70E805DF91CF91089580E30E94E80581E0C3
S1130C800E94E8058FE097E20197F1F700C00000A9
S1130C900895CF92DF92EF92FF920F931F93CF9319
S1130CA0DF9300E010E00F2EF8E8CF2EF02D6894CB
S1130CB0DD24D7F80032110534F4780180E8E80E19
S1130CC0F11CCD2D05C0780180E6E80EF11CCC2D79
S1130CD084E30E94E8058E2D0E94E8058C2F0E9473
S1130CE0E805C0E1D0E080E00E94FE052197D9F735
S1130CF00F5F1F4F00341105E9F686E30E94E805F3
S1130D000E943C06DF91CF911F910F91FF90EF90CD
S1130D10DF90CF9008950E943C060E9449060895F2
S1130D20559A569A549A5C9A8FE493EC0197F1F78A
S1130D3000C0000080E30E94E8058CE00E94E80502
S1130D400E943C0686E00E94E80508950F931F93D5
S1130D50CF938C0180E30E94E805F8018081882309
S1130D6051F0C0E00E94FE05CF5FF801EC0FF11DC9
S1130D7080818111F7CFCF911F910F910895E8944D
S1130D8009C097FB3EF490958095709561957F4FCF
S1130D908F4F9F4F9923A9F0F92F96E9BB2793957D
S1130DA0F695879577956795B795F111F8CFFAF48D
S1130DB0BB0F11F460FF1BC06F5F7F4F8F4F9F4FBE
S1130DC016C0882311F096E911C0772321F09EE81C
S1130DD0872F762F05C0662371F096E8862F70E082
S1130DE060E02AF09A95660F771F881FDAF7880F5C
S1130DF09695879597F908950E940F070C9480079C
S1130E000E94720738F00E94790720F0952311F0B0
S1130E100C9469070C946F0711240C94B4070E9476
S1130E20910770F3959FC1F3950F50E0551F629F92
S1130E30F001729FBB27F00DB11D639FAA27F00D2F
S1130E40B11DAA1F649F6627B00DA11D661F829F56
S1130E502227B00DA11D621F739FB00DA11D621F3B
S1130E60839FA00D611D221F749F3327A00D611D58
S1130E70231F849F600D211D822F762F6A2F11243A
S1130E809F5750409AF0F1F088234AF0EE0FFF1F6D
S1130E90BB1F661F771F881F91505040A9F79E3FC4
S1130EA0510580F00C9469070C94B4075F3FE4F398
S1130EB0983ED4F3869577956795B795F795E7951A
S1130EC09F5FC1F7FE2B880F911D9695879597F923
S1130ED0089597F99F6780E870E060E008959FEFB8
S1130EE080EC089500240A941616170618060906BD
S1130EF0089500240A94121613061406050608958C
S1130F00092E0394000C11F4882352F0BB0F40F413
S1130F10BF2B11F460FF04C06F5F7F4F8F4F9F4F53
S1130F20089557FD9058440F551F59F05F3F71F0D5
S1130F304795880F97FB991F61F09F3F79F087953C
S1130F400895121613061406551FF2CF4695F1DFC5
S1130F5008C0161617061806991FF1CF8695710555
S1130F60610508940895E894BB2766277727CB0189
S1130F7097F90895EE0FFF1F0590F491E02D099461
S1130F80EF920F931F93CF93DF93E80147FD02C0C5
S1130F9034E001C034E1042E000C550B57FF03C0AC
S1130FA0519541955109E32E022F242FAE010E9441
S1130FB0E309CE01DF91CF911F910F91EF90089536
S1130FC0AEE0B0E0E6EEF7E00C94D30C0D891E8998
S1130FD086E08C831A8309838FEF9FE79E838D833A
S1130FE0AE01475E5F4F6F89788DCE0101960E94F6
S1130FF00208EF81F885E00FF11F10822E96E4E0DD
S11310000C94EF0CABE0B0E0E8E0F8E00C94C50C15
S11310106C017B018A01FC0117821682838181FFA6
S1131020CCC1CE0101963C01F6019381F70193FDF9
S1131030859193FF81917F01882309F4BAC1853298
S113104039F493FD859193FF81917F01853229F4D1
S1131050B60190E00E942B0CE7CF912C212C312C6F
S1131060FFE1F315D8F08B3279F038F4803279F05F
S11310708332A1F4232D20611DC08D3261F08033B1
S113108069F4232D216016C0832D8260382EE32D50
S1131090E4603E2E2AC0F32DF8601DC037FC2DC03D
S11310A020ED280F2A3040F08E32B9F436FC81C18D
S11310B0232D2064322E19C036FE06C08AE0989E85
S11310C0200D1124922E11C0EAE02E9E200D112431
S11310D0222EF32DF0623F2E08C08C3621F4832D8E
S11310E08068382E02C0883641F4F70193FD85915B
S11310F093FF81917F018111B3CF982F9F7D9554E8
S1131100933028F40C5F1F4F9FE399830DC08336FF
S113111031F0833771F0833509F059C021C0F801EB
S1131120808189830E5F1F4F88248394912C5301FF
S113113013C02801F2E04F0E511CF801A080B180C9
S113114036FE03C0692D70E002C06FEF7FEFC5016A
S11311500E94200C4C018201F32DFF773F2E16C014
S1131160280122E0420E511CF801A080B18036FE15
S113117003C0692D70E002C06FEF7FEFC5010E94CC
S1131180150C4C01F32DF0683F2E820133FC1BC07B
S1131190822D90E088169906B0F4B60180E290E0C2
S11311A00E942B0C2A94F4CFF50137FC859137FE6D
S11311B081915F01B60190E00E942B0C21102A94CA
S11311C021E0821A91088114910471F7E8C08436F1
S11311D011F0893641F5F80137FE07C0608171814D
S11311E0828193810C5F1F4F08C060817181072E3B
S11311F0000C880B990B0E5F1F4FF32DFF763F2ECB
S113120097FF09C090958095709561957F4F8F4F9A
S11312109F4FF0683F2E2AE030E0A3010E94670C44
S1131220882E861845C0853731F4232D2F7EB22EA3
S11312302AE030E025C0932D997FB92E8F36C1F076
S113124018F4883579F0B5C0803719F0883721F063
S1131250B0C0E92FE061BE2EB4FE0DC0FB2DF460DA
S1131260BF2E09C034FE0AC0292F2660B22E06C044
S113127028E030E005C020E130E002C020E132E0A7
S1131280F801B7FE07C060817181828193810C5F90
S11312901F4F06C06081718180E090E00E5F1F4F98
S11312A0A3010E94670C882E8618FB2DFF773F2E22
S11312B036FE0DC0232D2E7FA22E891458F434FE41
S11312C00BC032FC09C0832D8E7EA82E05C0B82C1D
S11312D0A32C03C0B82C01C0B92CA4FE0FC0FE017E
S11312E0E80DF11D8081803321F49A2D997EA92E79
S11312F009C0A2FE06C0B394B39404C08A2D8678B4
S113130009F0B394A3FC11C0A0FE06C0B21488F483
S1131310280C922C9B180EC0B21460F4B60180E223
S113132090E00E942B0CB394F7CFB21418F42B184E
S113133002C0982C212CA4FE10C0B60180E390E0DA
S11313400E942B0CA2FE17C0A1FC03C088E790E00A
S113135002C088E590E0B6010CC08A2D867859F069
S1131360A1FE02C08BE201C080E2A7FC8DE2B601BF
S113137090E00E942B0C891438F4B60180E390E0CD
S11313800E942B0C9A94F7CF8A94F301E80DF11D77
S11313908081B60190E00E942B0C8110F5CF2220B1
S11313A009F442CEB60180E290E00E942B0C2A940C
S11313B0F6CFF6018681978102C08FEF9FEF2B96BF
S11313C0E2E10C94E10CA9E0B0E0E9EEF9E00C9460
S11313D0CB0C6A01122FB02E2BE3201720F0FF2430
S11313E0F394F00E02C02CE3F22E0F2D27E0AE0191
S11313F04F5F5F4F0E943D0BBC014981842F897070
S1131400813031F0E1FC06C0E0FE06C090E205C088
S11314109DE203C09BE201C090E05E2D507143FF4A
S11314203CC0911102C083E001C084E0811718F42C
S1131430212F281B01C020E051110BC0F601822F7F
S113144030E2882319F031938150FBCFC20ED11CB6
S113145020E0992329F0D6019C93F60131966F017F
S1131460C6010396E2FE0AC03EE4D6013C9341E481
S113147011964C93119712963C9306C03EE6F601E2
S1131480308341E641833283FC01322F40E233232F
S113149009F442C041933150FACF42FF44C0911144
S11314A002C083E001C084E0811718F4212F281BB7
S11314B001C020E051110BC0F601822F30E28823D5
S11314C019F031938150FBCFC20ED11C20E0992337
S11314D029F0D6019C93F60131966F01C60103965B
S11314E0E2FE0BC039E4D6013C933EE411963C93F2
S11314F0119736E412963C9307C039E6F60130831F
S11315003EE6318336E63283FC01322F40E2332358
S113151019F041933150FBCFFC01E20FF11D108211
S11315208EEF9FEFA6C021E030E0911102C020E0D1
S113153030E0161617061CF4FB01319602C0E1E0F8
S1131540F0E02E0F3F1FBB2021F0EB2DF0E0319691
S113155002C0E0E0F0E02E0F3F1FE12FF0E02E1775
S11315603F071CF4121B212F01C020E08E2D88712F
S113157059F4F601822F30E2882319F03193815017
S1131580FBCFC20ED11C20E0992329F0D6019C93F5
S1131590F60131966F0151110BC0F601822F90E3D1
S11315A0882319F091938150FBCFC20ED11C20E007
S11315B00F2D060F9A81342F307144FF03C09133ED
S11315C009F40150101624F4093018F008E001C0A1
S11315D001E0AB0177FF02C040E050E0FB01E41BF7
S11315E0F50BA1E0B0E0AC0FBD1FEA0FFB1F8EE2CC
S11315F0A82E4B01801A91080B2D10E0119501952E
S113160011094F3FBFEF5B0721F4D601AC9211964D
S11316106D01641775072CF08416950614F4818106
S113162001C080E3415051093196D60111967D01E4
S11316304017510724F0D6018C936701E2CF641759
S1131640750739F4963320F4953319F4311101C038
S113165081E3F6018083F701822F90E2882319F059
S113166091938150FBCFF701E20FF11D108280E0CE
S113167090E02996ECE00C94E70C283008F027E081
S11316803327DA01990F311D87FD916000966105BA
S1131690710539F432602E5F3D9330E32A95E1F70A
S11316A008959F3F30F080387105610509F03C5F73
S11316B03C5F3D93913008F08068911DDF93CF9398
S11316C01F930F93FF92EF92192F987F9695E92F0E
S11316D096959695E90FFF27E859FD4F99273327EB
S11316E0EE24FF24A701E70105900894079428F449
S11316F0360FE71EF81E491F511D660F771F881FFE
S1131700991F0694A1F70590079428F4E70EF81E94
S1131710491F561FC11D770F881F991F661F069406
S1131720A1F70590079428F4F80E491F561FC71F08
S1131730D11D880F991F661F771F0694A1F7059086
S1131740079420F4490F561FC71FD81F990F661F0F
S1131750771F881F0694A9F784911095177041F09C
S1131760D695C79557954795F794E7941A95C1F779
S1131770EEE0F2E06894159015913591659195919C
S113178005907FE27395E118F10A430B560BC90BE0
S1131790D009C0F7E10CF11E431F561FC91FD01D0D
S11317A07EF4703311F48A95E6CFE894015030F05A
S11317B0080F0AF40027021708F4202F2395022F9C
S11317C07A3328F079E37D932A95E9F710C07D9365
S11317D02A9589F6069497956795379517951794E2
S11317E0E118F10A430B560BC90BD00998F0239565
S11317F07E9173957A3308F070E37C932013B8F7E5
S11318007E9170617D9330F0839571E37D9370E3F5
S11318102A95E1F71124EF90FF900F911F91CF913A
S1131820DF91992787FD90950895FC0105906150FB
S113183070400110D8F7809590958E0F9F1F0895E2
S1131840FC016150704001900110D8F7809590958B
S11318508E0F9F1F08950F931F93CF93DF93FB0168
S1131860238121FD03C08FEF9FEF2CC022FF16C000
S113187046815781248135814217530744F4A0815E
S1131880B1819D012F5F3F4F318320838C9326814B
S113189037812F5F3F4F3783268314C08B01EC01C0
S11318A0FB010084F185E02D0995892BE1F6D8012F
S11318B016968D919C911797019617969C938E93EB
S11318C01697CE01DF91CF911F910F910895FA01E0
S11318D0AA27283051F1203181F1E8946F936E7F6B
S11318E06E5F7F4F8F4F9F4FAF4FB1E03ED0B4E05C
S11318F03CD0670F781F891F9A1FA11D680F791F9D
S11319008A1F911DA11D6A0F711D811D911DA11DAD
S113191020D009F468943F912AE0269F11243019BD
S1131920305D3193DEF6CF010895462F4770405D58
S11319304193B3E00FD0C9F7F6CF462F4F70405D07
S11319404A3318F0495D31FD4052419302D0A9F762
S1131950EACFB4E0A6959795879577956795BA955C
S1131960C9F700976105710508959B01AC010A2E22
S113197006945795479537952795BA95C9F7620FF9
S1131980731F841F951FA01D08952F923F924F929D
S11319905F926F927F928F929F92AF92BF92CF92FB
S11319A0DF92EF92FF920F931F93CF93DF93CDB704
S11319B0DEB7CA1BDB0B0FB6F894DEBF0FBECDBF7C
S11319C009942A88398848885F846E847D848C844D
S11319D09B84AA84B984C884DF80EE80FD800C8156
S11319E01B81AA81B981CE0FD11D0FB6F894DEBF39
S10F19F00FBECDBFED010895F894FFCFA9
S11319FC0D0A205045444F4D4554524F200D0A00BA
S1131A0C3131343032303540697365702E69707001
S1131A1C2E7074202D20416E647265204D6172719C
S1131A2C7565730D0A0A0031313431323836406928
S1131A3C7365702E6970702E7074202D2054686F2D
S1131A4C72204A6F73652053747275636B0D0A0AA6
S1131A5C002020416E647265204D6172717565734E
S1131A6C0020204E273A20003131343032303500FA
S1131A7C202054686F722053747275636B0031317B
S1131A8C34313238360046616C686F75206F2065CE
S1131A9C6E64657265636F2025640D0A0A00454EF9
S1131AAC54524F552025640D0A0A006178203D25B7
S1131ABC730D0A006179203D25730D0A00617A20AB
S10B1ACC3D2025730D0A000002
S9030346B3
