S00B00006F6C612E73726563DD
S11300000C94BB000C94D8000C94D8000C94D80029
S11300100C94D8000C94D8000C94D8000C94D800FC
S11300200C94D8000C94D8000C94D8000C94D800EC
S11300300C94D8000C94D8000C94D8000C94D800DC
S11300400C9422010C94D8000C94D8000C94D80081
S11300500C944E010C94D8000C94D8000C94D80045
S11300600C94D8000C94D8000C94D8000C94D800AC
S11300700C9463010C94D8000C94D80000407A10BE
S1130080F35A00A0724E18090010A5D4E80000E845
S11300907648170000E40B54020000CA9A3B0000A3
S11300A000E1F505000080969800000040420F0032
S11300B00000A08601000000102700000000E803F3
S11300C0000000006400000000000A0000000000BE
S11300D00100000000002C76D888DC674F0823DF7D
S11300E0C1DFAE59E1B1B796E5E3E453C63AE65150
S11300F0997696E8E6C28426EB898C9B62ED407C77
S11301006FFCEFBC9C9F40F2BAA56FA5F490055A12
S11301102AF75C936B6CF9676DC11BFCE0E40D4737
S1130120FEF520E6B500D0ED902E0300943577055A
S11301300080841E080000204E0A000000C80C3312
S11301403333330F986E12831141EF8D2114893BA1
S1130150E65516CFFEE6DB18D1844B381BF77C1D21
S1130160901DA4BBE424203284725E228100C9F174
S113017024ECA1E53D2711241FBECFEFD8E0DEBF5C
S1130180CDBF11E0A0E0B1E0E0E3F6E102C00590EC
S11301900D92A83DB107D9F722E0A8EDB1E001C066
S11301A01D92A139B207E1F70E9405020C94160BC7
S11301B00C94000084B1876084B91092C5008AE26F
S11301C08093C40082E08093C00098E99093C100BA
S11301D086E08093C2001092CD0021E82093CC00E9
S11301E01092C8009093C9008093CA0082EC87BD26
S11301F082E884BD84E085BDEEE6F0E08081826023
S113020080831092B90081E18093B8008CE699E074
S1130210A9EFBBE38093FA019093FB01A093FC0147
S1130220B093FD0180E49AEDAFE7B8E380932D022B
S113023090932E02A0932F02B09330028FB7806860
S11302408FBF08951F920F920FB60F9211248F93B0
S11302508091D9018F5F8093D9018091D8018F5FFC
S11302608093D8018091D901883C39F41092D90146
S113027080912A02846080932A028091D801893176
S113028039F41092D80180912A02886080932A025E
S11302908F910F900FBE0F901F9018951F920F9281
S11302A00FB60F9211248F9380912A02816080935C
S11302B02A028091C600809305028F910F900FBE91
S11302C00F901F9018951F920F920FB60F92112442
S11302D08F9380912A02826080932A028091CE00BB
S11302E080930E028F910F900FBE0F901F90189560
S11302F0CF93DF9390913502992389F020E0E0ECCD
S1130300F0E0C6ECD0E0808185FFFDCF98832F5FBD
S1130310A22FB0E0AB5CBD4F9C919111F4CFDF9163
S1130320CF910895CF93DF939091DC01992389F0C5
S113033020E0E8ECF0E0CEECD0E0808185FFFDCF5A
S113034098832F5FA22FB0E0A452BE4F9C919111CD
S1130350F4CFDF91CF91089580E1E0E0F1E0A5E3EF
S1130360B2E001900D928A95E1F70E94780187E24C
S1130370E0E1F1E0A5E3B2E001900D928A95E1F7A6
S11303800E9478018AE2E7E3F1E0A5E3B2E001909C
S11303900D928A95E1F70E9478010E94AB0460E017
S11303A080E00E94340481E691E00E94C60460E08B
S11303B081E00E94340481E791E00E94C60488E74A
S11303C091E00E94C60460E082E00E94340480E868
S11303D091E00E94C60460E083E00E94340481E757
S11303E091E00E94C6048EE891E00E94C6042FEFBB
S11303F03CE281E391E02150304080409040D9F7C5
S113040000C000000E94AB0408950E94B0040E9442
S1130410DA000E94AC0180ED0E941903809363020C
S113042080916302882371F10E941C031F9280ED66
S11304308F9386E991E09F938F938CED91E09F9346
S11304408F930E94FA050E9492010F900F900F90D3
S11304500F900F900F90992493940F2EFBEBAF2ED7
S1130460F1E0BF2EF02DCCEDD1E00F2EF4ECCF2E29
S1130470F1E0DF2EF02D0F2EFDECEF2EF1E0FF2E3C
S1130480F02D1EC01F9280ED8F938EEA91E09F9312
S11304908F938CED91E09F938F930E94FA050E94B5
S11304A092018BE60E94250380E00E9425030E94AE
S11304B01C030F900F900F900F900F900F90CBCFC5
S11304C04AE052E066E872E088E192E00E944D035F
S11304D080912A0282FFF4CF80912A028B7F80933D
S11304E02A0285B1892585B9609118027091190293
S11304F080911A0290911B0201E112E022E044E093
S11305000E94DA05609186027091870280918802C8
S11305109091890203E512E022E044E00E94DA05AA
S113052060910A0270910B0280910C0290910D026D
S11305300CE112E022E043E00E94DA0581E192E05E
S11305409F938F93BF92AF92DF93CF930E94FA054C
S11305500E94920183E592E09F938F93DF92CF9262
S1130560DF93CF930E94FA050E949201C8019F93E2
S11305700F93FF92EF92DF93CF930E94FA050E94AC
S113058092018DB79EB742960FB6F8949EBF0FBEE8
S11305908DBF96CF94EA9093BC00ECEBF0E0908191
S11305A09923ECF79091B900987F983011F090312D
S11305B0A1F48093BB0084E88093BC00ECEBF0E0F2
S11305C080818823ECF79091B900987F983139F0B5
S11305D081E0903429F480E0089581E0089580E07A
S11305E00895CF93DF93ECEBF0E024EAA9EBB0E0BD
S11305F0CBEBD0E034E844E9208390819923ECF7F5
S11306009C91987F983011F09031B1F788833083B2
S113061090819923ECF79C91987F903211F0983552
S113062029F44083908194FDFDCFE6CFDF91CF91F3
S113063008950E94CA02089584E98093BC00ECEBFB
S1130640F0E0808184FDFDCF08958093BB0084E8B1
S11306508093BC00ECEBF0E080818823ECF7909170
S1130660B900987F81E0983209F480E0089584EC21
S11306708093BC00ECEBF0E080818823ECF7809160
S1130680BB00089584E88093BC00ECEBF0E080812B
S11306908823ECF78091BB0008958F929F92AF92CC
S11306A0BF92CF92DF92EF92FF920F931F93CF935B
S11306B0DF937C018B01EA0180ED0E94F1028BE360
S11306C00E94250381ED0E9419030E943703882E9E
S11306D00E943703B82E0E943703982E0E943703D6
S11306E0D82E0E943703C82E0E944203A82E0E94CF
S11306F01C036B2D70E0782970937D0260937C025B
S11307008D2D90E0992990932902809328028A2DB7
S113071090E09C299093100280930F02072E000C06
S1130720880B990B0E94E10420912D0230912E0236
S113073040912F02509130020E941C0529E739EEA6
S11307404CE151E40E941C05F701608371838283AC
S113075093836091280270912902072E000C880B64
S1130760990B0E94E10420912D0230912E024091B8
S11307702F02509130020E941C0529E739EE4CE10A
S113078051E40E941C05F801608371838283938382
S113079060910F0270911002072E000C880B990BC8
S11307A00E94E10420912D0230912E0240912F02EB
S11307B0509130020E941C0529E739EE4CE151E4C6
S11307C00E941C05688379838A839B83DF91CF9180
S11307D01F910F91FF90EF90DF90CF90BF90AF905B
S11307E09F908F90089527E030E090E05E98AC01F0
S11307F0022E02C0559547950A94E2F740FF02C0C5
S11308005D9A01C05D985E9A2150310978F7089588
S1130810CF93C82F88EF0E94F3038C2F807F0E9410
S1130820F3038C2F8295807F0E94F30387E691E087
S11308300197F1F700C00000CF910895CF93C82F1E
S11308408AEF0E94F3038C2F807F0E94F3038C2F86
S11308508295807F0E94F30387E691E00197F1F788
S113086000C00000CF910895CF93DF93C82FD62FF7
S113087080E30E940804C13071F01CF4CC2331F0F1
S113088018C0C23069F0C33081F013C080E88D0F06
S11308900E9408040EC080E98D0F0E94080409C05C
S11308A088E88D0F0E94080404C088E98D0F0E9417
S11308B00804DF91CF91089580E30E94080481E049
S11308C00E9408048FE097E20197F1F700C000004E
S11308D00895CF92DF92EF92FF920F931F93CF93DD
S11308E0DF9300E010E00F2EF8E8CF2EF02D68948F
S11308F0DD24D7F80032110534F4780180E8E80EDD
S1130900F11CCD2D05C0780180E6E80EF11CCC2D3C
S113091084E30E9408048E2D0E9408048C2F0E94F8
S11309200804C0E1D0E080E00E941E042197D9F7BA
S11309300F5F1F4F00341105E9F686E30E94080497
S11309400E945C04DF91CF911F910F91FF90EF9073
S1130950DF90CF9008950E945C040E94690408957A
S1130960559A569A549A5C9A8FE493EC0197F1F74E
S113097000C0000080E30E9408048CE00E94080488
S11309800E945C0486E00E94080408950F931F935C
S1130990CF938C0180E30E940804F80180818823AE
S11309A051F0C0E00E941E04CF5FF801EC0FF11D6E
S11309B080818111F7CFCF911F910F910895E89411
S11309C009C097FB3EF490958095709561957F4F93
S11309D08F4F9F4F9923A9F0F92F96E9BB27939541
S11309E0F695879577956795B795F111F8CFFAF451
S11309F0BB0F11F460FF1BC06F5F7F4F8F4F9F4F82
S1130A0016C0882311F096E911C0772321F09EE8DF
S1130A10872F762F05C0662371F096E8862F70E045
S1130A2060E02AF09A95660F771F881FDAF7880F1F
S1130A309695879597F908950E942F050C94A00523
S1130A400E94920538F00E94990520F0952311F038
S1130A500C9489050C948F0511240C94D4050E94E0
S1130A60B10570F3959FC1F3950F50E0551F629F38
S1130A70F001729FBB27F00DB11D639FAA27F00DF3
S1130A80B11DAA1F649F6627B00DA11D661F829F1A
S1130A902227B00DA11D621F739FB00DA11D621FFF
S1130AA0839FA00D611D221F749F3327A00D611D1C
S1130AB0231F849F600D211D822F762F6A2F1124FE
S1130AC09F5750409AF0F1F088234AF0EE0FFF1F31
S1130AD0BB1F661F771F881F91505040A9F79E3F88
S1130AE0510580F00C9489050C94D4055F3FE4F320
S1130AF0983ED4F3869577956795B795F795E795DE
S1130B009F5FC1F7FE2B880F911D9695879597F9E6
S1130B10089597F99F6780E870E060E008959FEF7B
S1130B2080EC089500240A94161617061806090680
S1130B30089500240A94121613061406050608954F
S1130B40092E0394000C11F4882352F0BB0F40F4D7
S1130B50BF2B11F460FF04C06F5F7F4F8F4F9F4F17
S1130B60089557FD9058440F551F59F05F3F71F099
S1130B704795880F97FB991F61F09F3F79F0879500
S1130B800895121613061406551FF2CF4695F1DF89
S1130B9008C0161617061806991FF1CF8695710519
S1130BA0610508940895E894BB2766277727CB014D
S1130BB097F90895EF920F931F93CF93DF93E80172
S1130BC047FD02C034E001C034E1042E000C550B93
S1130BD057FF03C0519541955109E32E022F242F4D
S1130BE0AE010E94FD07CE01DF91CF911F910F91BD
S1130BF0EF900895AEE0B0E0E0E0F6E00C94ED0A8A
S1130C000D891E8986E08C831A8309838FEF9FE701
S1130C109E838D83AE01475E5F4F6F89788DCE01D1
S1130C2001960E941C06EF81F885E00FF11F1082E7
S1130C302E96E4E00C94090BABE0B0E0E2E2F6E0BF
S1130C400C94DF0A6C017B018A01FC011782168275
S1130C50838181FFCCC1CE0101963C01F6019381D1
S1130C60F70193FD859193FF81917F01882309F416
S1130C70BAC1853239F493FD859193FF81917F0147
S1130C80853229F4B60190E00E94450AE7CF912C01
S1130C90212C312CFFE1F315D8F08B3279F038F4A4
S1130CA0803279F08332A1F4232D20611DC08D326E
S1130CB061F0803369F4232D216016C0832D826096
S1130CC0382EE32DE4603E2E2AC0F32DF8601DC0BB
S1130CD037FC2DC020ED280F2A3040F08E32B9F4B5
S1130CE036FC81C1232D2064322E19C036FE06C085
S1130CF08AE0989E200D1124922E11C0EAE02E9EC7
S1130D00200D1124222EF32DF0623F2E08C08C36C4
S1130D1021F4832D8068382E02C0883641F4F7010F
S1130D2093FD859193FF81917F018111B3CF982F1A
S1130D309F7D9554933028F40C5F1F4F9FE3998354
S1130D400DC0833631F0833771F0833509F059C013
S1130D5021C0F801808189830E5F1F4F882483940A
S1130D60912C530113C02801F2E04F0E511CF801DD
S1130D70A080B18036FE03C0692D70E002C06FEF21
S1130D807FEFC5010E943A0A4C018201F32DFF77DF
S1130D903F2E16C0280122E0420E511CF801A0800B
S1130DA0B18036FE03C0692D70E002C06FEF7FEFA3
S1130DB0C5010E942F0A4C01F32DF0683F2E8201D9
S1130DC033FC1BC0822D90E088169906B0F4B6015E
S1130DD080E290E00E94450A2A94F4CFF50137FCA2
S1130DE0859137FE81915F01B60190E00E94450A2A
S1130DF021102A9421E0821A91088114910471F738
S1130E00E8C0843611F0893641F5F80137FE07C091
S1130E1060817181828193810C5F1F4F08C0608162
S1130E207181072E000C880B990B0E5F1F4FF32D59
S1130E30FF763F2E97FF09C0909580957095619538
S1130E407F4F8F4F9F4FF0683F2E2AE030E0A30181
S1130E500E94810A882E861845C0853731F4232DD7
S1130E602F7EB22E2AE030E025C0932D997FB92E33
S1130E708F36C1F018F4883579F0B5C0803719F091
S1130E80883721F0B0C0E92FE061BE2EB4FE0DC05A
S1130E90FB2DF460BF2E09C034FE0AC0292F266042
S1130EA0B22E06C028E030E005C020E130E002C0E8
S1130EB020E132E0F801B7FE07C0608171818281D0
S1130EC093810C5F1F4F06C06081718180E090E0C8
S1130ED00E5F1F4FA3010E94810A882E8618FB2DE6
S1130EE0FF773F2E36FE0DC0232D2E7FA22E8914B0
S1130EF058F434FE0BC032FC09C0832D8E7EA82E1C
S1130F0005C0B82CA32C03C0B82C01C0B92CA4FE76
S1130F100FC0FE01E80DF11D8081803321F49A2D6C
S1130F20997EA92E09C0A2FE06C0B394B39404C04E
S1130F308A2D867809F0B394A3FC11C0A0FE06C0E4
S1130F40B21488F4280C922C9B180EC0B21460F4CE
S1130F50B60180E290E00E94450AB394F7CFB21440
S1130F6018F42B1802C0982C212CA4FE10C0B60132
S1130F7080E390E00E94450AA2FE17C0A1FC03C0D2
S1130F8088E790E002C088E590E0B6010CC08A2DA5
S1130F90867859F0A1FE02C08BE201C080E2A7FC72
S1130FA08DE2B60190E00E94450A891438F4B60136
S1130FB080E390E00E94450A9A94F7CF8A94F30163
S1130FC0E80DF11D8081B60190E00E94450A811070
S1130FD0F5CF222009F442CEB60180E290E00E94CF
S1130FE0450A2A94F6CFF6018681978102C08FEFD5
S1130FF09FEF2B96E2E10C94FB0AA9E0B0E0E3E05A
S1131000F8E00C94E50A6A01122FB02E2BE32017A6
S113101020F0FF24F394F00E02C02CE3F22E0F2DE7
S113102027E0AE014F5F5F4F0E945709BC01498121
S1131030842F8970813031F0E1FC06C0E0FE06C0E7
S113104090E205C09DE203C09BE201C090E05E2DEA
S1131050507143FF3CC0911102C083E001C084E0A1
S1131060811718F4212F281B01C020E051110BC057
S1131070F601822F30E2882319F031938150FBCF9F
S1131080C20ED11C20E0992329F0D6019C93F601CD
S113109031966F01C6010396E2FE0AC03EE4D60112
S11310A03C9341E411964C93119712963C9306C0DD
S11310B03EE6F601308341E641833283FC01322F60
S11310C040E2332309F442C041933150FACF42FF46
S11310D044C0911102C083E001C084E0811718F478
S11310E0212F281B01C020E051110BC0F601822FD3
S11310F030E2882319F031938150FBCFC20ED11C0A
S113110020E0992329F0D6019C93F60131966F01D2
S1131110C6010396E2FE0BC039E4D6013C933EE4DB
S113112011963C93119736E412963C9307C039E626
S1131130F60130833EE6318336E63283FC01322FFA
S113114040E2332319F041933150FBCFFC01E20F0D
S1131150F11D10828EEF9FEFA6C021E030E09111C7
S113116002C020E030E0161617061CF4FB0131968D
S113117002C0E1E0F0E02E0F3F1FBB2021F0EB2D79
S1131180F0E0319602C0E0E0F0E02E0F3F1FE12FC7
S1131190F0E02E173F071CF4121B212F01C020E0A2
S11311A08E2D887159F4F601822F30E2882319F0CC
S11311B031938150FBCFC20ED11C20E0992329F03A
S11311C0D6019C93F60131966F0151110BC0F601C3
S11311D0822F90E3882319F091938150FBCFC20EA4
S11311E0D11C20E00F2D060F9A81342F307144FF5B
S11311F003C0913309F40150101624F4093018F097
S113120008E001C001E0AB0177FF02C040E050E01C
S1131210FB01E41BF50BA1E0B0E0AC0FBD1FEA0F2E
S1131220FB1F8EE2A82E4B01801A91080B2D10E0B3
S11312301195019511094F3FBFEF5B0721F4D601CA
S1131240AC9211966D01641775072CF084169506FF
S113125014F4818101C080E3415051093196D601D3
S113126011967D014017510724F0D6018C93670134
S1131270E2CF6417750739F4963320F4953319F4E3
S1131280311101C081E3F6018083F701822F90E2DE
S1131290882319F091938150FBCFF701E20FF11DE0
S11312A0108280E090E02996ECE00C94010B283049
S11312B008F027E03327DA01990F311D87FD91608B
S11312C000966105710539F432602E5F3D9330E379
S11312D02A95E1F708959F3F30F080387105610544
S11312E009F03C5F3C5F3D93913008F08068911DAC
S11312F0DF93CF931F930F93FF92EF92192F987F51
S11313009695E92F96959695E90FFF27EA52FF4F98
S113131099273327EE24FF24A701E70105900894B9
S1131320079428F4360FE71EF81E491F511D660F57
S1131330771F881F991F0694A1F70590079428F436
S1131340E70EF81E491F561FC11D770F881F991FEE
S1131350661F0694A1F70590079428F4F80E491F18
S1131360561FC71FD11D880F991F661F771F06942C
S1131370A1F70590079420F4490F561FC71FD81FE3
S1131380990F661F771F881F0694A9F784911095FB
S1131390177041F0D695C79557954795F794E794FC
S11313A01A95C1F7ECE7F0E0689415901591359122
S11313B06591959105907FE27395E118F10A430BCD
S11313C0560BC90BD009C0F7E10CF11E431F561F81
S11313D0C91FD01D7EF4703311F48A95E6CFE894CA
S11313E0015030F0080F0AF40027021708F4202FE8
S11313F02395022F7A3328F079E37D932A95E9F730
S113140010C07D932A9589F606949795679537952C
S113141017951794E118F10A430B560BC90BD00921
S113142098F023957E9173957A3308F070E37C935A
S11314302013B8F77E9170617D9330F0839571E34A
S11314407D9370E32A95E1F71124EF90FF900F91BB
S11314501F91CF91DF91992787FD90950895FC0105
S11314600590615070400110D8F7809590958E0FCB
S11314709F1F0895FC016150704001900110D8F73E
S1131480809590958E0F9F1F08950F931F93CF9370
S1131490DF93FB01238121FD03C08FEF9FEF2CC05D
S11314A022FF16C046815781248135814217530794
S11314B044F4A081B1819D012F5F3F4F318320838C
S11314C08C93268137812F5F3F4F3783268314C047
S11314D08B01EC01FB010084F185E02D0995892B3A
S11314E0E1F6D80116968D919C911797019617965F
S11314F09C938E931697CE01DF91CF911F910F91FC
S11315000895FA01AA27283051F1203181F1E89495
S11315106F936E7F6E5F7F4F8F4F9F4FAF4FB1E0E2
S11315203ED0B4E03CD0670F781F891F9A1FA11DDD
S1131530680F791F8A1F911DA11D6A0F711D811DDE
S1131540911DA11D20D009F468943F912AE0269FA3
S113155011243019305D3193DEF6CF010895462F02
S11315604770405D4193B3E00FD0C9F7F6CF462FE3
S11315704F70405D4A3318F0495D31FD405241934C
S113158002D0A9F7EACFB4E0A69597958795779509
S11315906795BA95C9F700976105710508959B0190
S11315A0AC010A2E06945795479537952795BA9519
S11315B0C9F7620F731F841F951FA01D08952F92F2
S11315C03F924F925F926F927F928F929F92AF92CF
S11315D0BF92CF92DF92EF92FF920F931F93CF931C
S11315E0DF93CDB7DEB7CA1BDB0B0FB6F894DEBFB3
S11315F00FBECDBF09942A88398848885F846E84D9
S11316007D848C849B84AA84B984C884DF80EE8022
S1131610FD800C811B81AA81B981CE0FD11D0FB62B
S1131620F894DEBF0FBECDBFED010895F894FFCF4F
S11316300D0A205045444F4D4554524F200D0A0089
S11316403131343032303540697365702E697070D1
S11316502E7074202D20416E647265204D6172716C
S11316607565730D0A0A00313134313238364069F8
S11316707365702E6970702E7074202D2054686FFD
S113168072204A6F73652053747275636B0D0A0A76
S1131690002020416E647265204D6172717565731E
S11316A00020204E273A20003131343032303500CA
S11316B0202054686F722053747275636B0031314B
S11316C034313238360046616C686F75206F20659E
S11316D06E64657265636F2025640D0A0A00454EC9
S11316E054524F552025640D0A0A006178203D2587
S11316F0730D0A006179203D25730D0A00617A207B
S10B17003D2025730D0A0000D1
S90301B447
