:1000000083C100009DC100009BC1000099C1000098
:1000100097C1000095C1000093C1000091C100008C
:100020008FC100008DC100008BC1000089C100009C
:1000300087C1000085C1000083C1000081C10000AC
:10004000B5C600007DC100007BC1000079C1000081
:10005000C9C6000075C1000073C1000071C1000075
:100060006FC100006DC1000067C5000069C10000DC
:1000700067C1000065C1000063C1000085068806F5
:10008000880688068806880688068806BB058806CE
:10009000880688068806880688068806BB058806BE
:1000A000880688068806880688068806C3058806A6
:1000B000880688068806880688068806DB0588067E
:1000C000880688068806880688068806C305880686
:1000D000880688068806880688068806E005880659
:1000E000880688068806880688068806E505880644
:1000F000880688068806880688068806F605880623
:1001000088068806880688068806880610068806F7
:10011000880688068806880688068806EA0588060E
:1001200088068806880688068806880604068806E3
:1001300088068806880688068806880612068806C5
:1001400088068806880688068806880612068806B5
:1001500088068806880688068806880612068806A5
:100160008806880688068806880688061206880695
:100170008806880688068806880688061B0688067C
:100180008806880688068806880688064C0688063B
:100190008806880688068806880688061B0688065C
:1001A0008806880688068806880688064C0688061B
:1001B0008806880688068806880688063306880624
:1001C00088068806880688068806880650068806F7
:1001D00088068806880688068806880650068806E7
:1001E00088068806880688068806880665068806C2
:1001F0008806880688068806880688067F06880698
:100200008806880688068806880688067F060040D5
:100210007A10F35A00A0724E18090010A5D4E80015
:1002200000E87648170000E40B54020000CA9A3B2D
:10023000000000E1F50500008096980000004042B3
:100240000F000000A0860100000010270000000041
:10025000E803000000006400000000000A00000045
:1002600000000100000000002C76D888DC674F08F1
:1002700023DFC1DFAE59E1B1B796E5E3E453C63AF7
:10028000E651997696E8E6C28426EB898C9B62ED6E
:10029000407C6FFCEFBC9C9F40F2BAA56FA5F49028
:1002A000055A2AF75C936B6CF9676DC11BFCE0E49F
:1002B0000D47FEF520E6B500D0ED902E03009435F5
:1002C00077050080841E080000204E0A000000C848
:1002D0000C333333330F986E12831141EF8D211499
:1002E000893BE65516CFFEE6DB18D1844B381BF769
:1002F0007C1D901DA4BBE424203284725E22810008
:10030000C9F124ECA1E53D2711241FBECFEFD8E0B1
:10031000DEBFCDBF12E0A0E0B1E0E0E2FDE102C04F
:1003200005900D92A230B107D9F722E0A2E0B2E029
:1003300001C01D92A13FB207E1F71AD60C948E0EB0
:100340005FCE94EA9093BC00ECEBF0E090819923AF
:10035000ECF79091B900987F983011F09031A1F4AA
:100360008093BB0084E88093BC00ECEBF0E08081DC
:100370008823ECF79091B900987F983139F081E0AB
:10038000903429F480E0089581E0089580E0089594
:10039000CF93DF93ECEBF0E024EAA9EBB0E0CBEBFA
:1003A000D0E034E844E9208390819923ECF79C91D4
:1003B000987F983011F09031B1F788833083908125
:1003C0009923ECF79C91987F903211F0983529F49D
:1003D0004083908194FDFDCFE6CFDF91CF910895CA
:1003E000B0CF089584E98093BC00ECEBF0E080810D
:1003F00084FDFDCF08958093BB0084E88093BC000A
:10040000ECEBF0E080818823ECF79091B900987FC5
:1004100081E0983209F480E0089584EC8093BC0078
:10042000ECEBF0E080818823ECF78091BB0008952D
:1004300084E88093BC00ECEBF0E080818823ECF74B
:100440008091BB0008958F929F92AF92BF92CF92FE
:10045000DF92EF92FF920F931F93CF93DF937C0174
:100460008B01EA0180ED94DF8BE3C5DF81EDB8DF1E
:10047000D4DF882ED2DFB82ED0DF982ECEDFD82E54
:10048000CCDFC82ED5DFA82EADDF6B2D70E078292C
:1004900070938202609381028D2D90E09929909350
:1004A0007A02809379028A2D90E09C2990937602BB
:1004B00080937502072E000C880B990B14D620919F
:1004C0007D0230917E0240917F025091800246D69B
:1004D00029E739EE4CE151E441D6F701608371839D
:1004E000828393836091790270917A02072E000CC7
:1004F000880B990BF8D520917D0230917E024091B6
:100500007F02509180022AD629E739EE4CE151E46E
:1005100025D6F8016083718382839383609175028D
:1005200070917602072E000C880B990BDCD5209178
:100530007D0230917E0240917F02509180020ED662
:1005400029E739EE4CE151E409D6688379838A833F
:100550009B83DF91CF911F910F91FF90EF90DF90E0
:10056000CF90BF90AF909F908F90089584B1806B93
:1005700084B98CB581658CBD08958EBD0DB407FE20
:10058000FDCF8EB50895CF93C62F2C98880F8E7708
:10059000F4DF8C2FF2DF2C9ACF9108956FE081E089
:1005A000F2CF08952C98880F8E778068E6DF80E080
:1005B000E4DF2C9A0895F2DF6DE88AE2E4DF6EE36F
:1005C0008BE2E1DF6EE18CE2DEDF60E08DE2DBDF1B
:1005D00060E485E1D8DF6DE381E1D5DF84E1E2DF2E
:1005E000982F937021F4682F636084E1CCCF089535
:1005F0003F924F925F926F927F928F929F92AF92B3
:10060000BF92CF92DF92EF92FF920F931F93CF93FF
:10061000DF93982EF62EE72E442E822E332E58018D
:100620008CE0981609F4BAC0EEE09E1203C010E107
:1006300002E102C010E000E084E0B4DF682F6F77D1
:1006400084E0A1DF8AE0AEDF682F60688AE09BDF8C
:1006500060E081E098DF512C612C712C4114510431
:100660006104710419F414C010E307E7CF2DDE2DE7
:10067000C12CD12C7601699189E085DFFFEFCF1A7B
:10068000DF0AEF0AFF0AC414D504E604F70498F35E
:10069000692D81E078DF8CE0981206C08DE082DF62
:1006A000682F60688DE06FDF84E07CDFF82EC0E0AB
:1006B000D0E0116009C084E075DFF82E2196CF3CB0
:1006C000E7E0DE0709F483C0812F8F21A1F387C003
:1006D0000170F02211F0C2E001C0C1E0FCE09F1205
:1006E0008AC08AE05FDF482E8CE05CDF282F27700D
:1006F000A9F0842D90E00197880F991F880F991F0A
:10070000880F991F820F911D092E000CAA0BBB0B9D
:10071000F50180839183A283B38311C0842D90E07F
:10072000880F991F880F991F880F991F092E000C99
:10073000AA0BBB0BF50180839183A283B383442072
:1007400071F0842D813108F080E1482E512C612C0C
:10075000712C411451046104710429F44CC0412CE2
:10076000512C32014394082D132DC12CD12C76012C
:1007700089E018DFF80181938F01FFEFCF1ADF0ABC
:10078000EF0AFF0AC414D504E604F70488F333C063
:100790006CE081E0F8DE10E307E780CF84E002DF61
:1007A000682F6F7784E0EFDE8AE0FCDE682F6068F8
:1007B0008AE0E9DE60E081E0E6DE512C612C712CFC
:1007C000411451046104710409F04ECFE1CF8DE072
:1007D000E9DE682F6F778DE0D6DEC3E00CC08DE0D8
:1007E000E1DE682F6F778DE0CEDE86E0DBDE8B7199
:1007F00009F46ECFC3E08C2FDF91CF911F910F9141
:10080000FF90EF90DF90CF90BF90AF909F908F9030
:100810007F906F905F904F903F900895EF92FF927E
:100820000F931F93CF93DF9300D000D0CDB7DEB7E7
:10083000182F7B0167E08DE0A6DEF70110838E01A3
:100840000F5F1F4F970141E0B7018CE0D1DE81308F
:1008500059F449815A816B817C8140315105610590
:10086000710519F083E001C083E00F900F900F90A5
:100870000F90DF91CF911F910F91FF90EF9008950E
:10088000EF92FF920F931F93CF93DF9300D000D08E
:10089000CDB7DEB77C0160E08DE075DE83E9F7015E
:1008A000808380E281838E010F5F1F4F970142E0BA
:1008B000B7018CE09DDE813071F4F701A7014C5F38
:1008C0005F4F90E0219192274E175F07D9F7F7010C
:1008D0002481921383E00F900F900F900F90DF917F
:1008E000CF911F910F91FF90EF90089580E487B909
:1008F00088B92FEF8AE197EB215080409040E1F7D3
:1009000000C0000018B8089580E887B988B92FE7BB
:1009100034E89EE1215030409040E1F700C00000F3
:1009200018B82FE734E89EE1215030409040E1F7BD
:1009300000C0000088B92FE734E89EE12150304024
:100940009040E1F700C0000018B82FE734E89EE1BE
:10095000215030409040E1F700C0000088B92FE7F7
:1009600034E88EE1215030408040E1F700C00000C3
:1009700018B8089527E030E090E02998AC01022EE5
:1009800002C0559547950A94E2F740FF02C02A9AA3
:1009900001C02A98299A2150310978F70895CF93F8
:1009A000C82F88EFE7DF8C2F807FE4DF8C2F8295C4
:1009B000807FE0DF87E691E00197F1F700C000005B
:1009C000CF910895CF93C82F8AEFD4DF8C2F807FEB
:1009D000D1DF8C2F8295807FCDDF87E691E0019774
:1009E000F1F700C00000CF910895CF93DF93C82F97
:1009F000D62F80E3D4DFC13069F01CF4CC2331F072
:100A000014C0C23059F0C33069F00FC080E88D0FB8
:100A1000C6DF0BC080E98D0FC2DF07C088E88D0FED
:100A2000BEDF03C088E98D0FBADFDF91CF91089553
:100A300080E3B5DF81E0B3DF8FE097E20197F1F764
:100A400000C000000895CF92DF92EF92FF920F93C3
:100A50001F93CF93DF9300E010E00F2EF8E8CF2E26
:100A6000F02D6894DD24D7F80032110534F47801B4
:100A700080E8E80EF11CCD2D05C0780180E6E80E77
:100A8000F11CCC2D84E38BDF8E2D89DF8C2F87DF4B
:100A9000C0E1D0E080E096DF2197E1F70F5F1F4FC4
:100AA0000034110509F786E37ADFC2DFDF91CF91C9
:100AB0001F910F91FF90EF90DF90CF900895B8DFD6
:100AC000C2CF0895229A219A209A289A8FE493EC13
:100AD0000197F1F700C0000080E361DF8CE05FDF89
:100AE000A7DF86E05CCF08950F931F93CF938C010F
:100AF00080E355DFF8018081882349F0C0E062DFA0
:100B0000CF5FF801EC0FF11D80818111F8CFCF91FB
:100B10001F910F91089585ED8093BC00ECEBF0E000
:100B2000808184FDFDCF10926D02089585EC809345
:100B3000BC0010926D0208951F920F920FB60F9293
:100B400011242F933F934F935F936F937F938F93D2
:100B50009F93AF93BF93EF93FF938091B900E82FDA
:100B6000E87F8E2F90E0893C910508F0D1C0FC0110
:100B7000E25CFF4FA7C380916C028093BB0085ECC1
:100B80008093BC00C5C0909147028091460298179F
:100B900080F4E091470281E08E0F80934702F0E0FD
:100BA000E85BFD4F80818093BB0085EC8093BC00A7
:100BB000AFC0B1DFADC080E280930202ACDFA8C05D
:100BC00080E380930202A7DFA3C088E38093020240
:100BD000ADDF9EC0E091470281E08E0F8093470217
:100BE0008091BB00F0E0E85BFD4F8083909147026D
:100BF00080914602981720F485EC8093BC0088C051
:100C000085E88093BC0084C0E091470281E08E0FAC
:100C1000809347028091BB00F0E0E85BFD4F80834A
:100C20007ADF76C083E080936D021092030285EC38
:100C30008093BC006DC080910302803280F4E0910B
:100C4000030281E08E0F809303028091BB00F0E0ED
:100C5000EC5FFD4F808385EC8093BC0059C085E834
:100C60008093BC0055C080910302803230F4E09143
:100C70000302F0E0EC5FFD4F10824DDF6091030254
:100C800070E0E0916802F091690284E092E00995D9
:100C9000109203024BDF3CC085E88093BC0038C053
:100CA00084E080936D021092250210922402E0915C
:100CB0006A02F0916B02099580912402811105C0AE
:100CC00081E08093240210922602E091250281E0C7
:100CD0008E0F80932502F0E0EA5DFD4F80818093C6
:100CE000BB009091250280912402981720F485EC96
:100CF0008093BC000DC085E88093BC0009C085ECE2
:100D00008093BC0010926D0203C01092020203DFB8
:100D1000FF91EF91BF91AF919F918F917F916F91D3
:100D20005F914F913F912F910F900FBE0F901F90A9
:100D3000189584B1876084B91092C5008AE28093C7
:100D4000C40082E08093C00088E98093C10086E0FF
:100D50008093C20082EC87BD82E884BD84E085BDBB
:100D6000EEE6F0E08081826080831092B90081E13C
:100D70008093B8008CE699E0A9EFBBE38093710201
:100D800090937202A0937302B093740280E49AED80
:100D9000AFE7B8E380937D0290937E02A0937F0239
:100DA000B09380028FB780688FBF08951F920F9213
:100DB0000FB60F9211248F9380916E028F5F8093F4
:100DC0006E0280916E02883C39F410926E0280911E
:100DD000A10284608093A1028F910F900FBE0F90AB
:100DE0001F9018951F920F920FB60F9211248F9398
:100DF0008091A10281608093A1028091C6008093BE
:100E00008A028F910F900FBE0F901F901895CF936D
:100E1000DF939091A602992389F020E0E0ECF0E0C6
:100E2000C6ECD0E0808185FFFDCF98832F5FA22F95
:100E3000B0E0AA55BD4F9C919111F4CFDF91CF91B5
:100E4000089580E1E0E0F1E0A6EAB2E001900D92C1
:100E50008A95E1F7DCDF87E2E0E1F1E0A6EAB2E0C3
:100E600001900D928A95E1F7D2DF8AE2E7E3F1E0A3
:100E7000A6EAB2E001900D928A95E1F7C8DF1FDE85
:100E800060E080E0B2DD81E691E02EDE60E081E0AE
:100E9000ACDD81E791E028DE88E791E025DE60E0C7
:100EA00082E0A3DD80E891E01FDE60E083E09DDD6D
:100EB00081E791E019DE8EE891E016DE2FEF3CE24B
:100EC00081E391E02150304080409040D9F700C04C
:100ED0000000F5CD08950F931F934FE852E066EEA2
:100EE00072E088E992E0AFDA60919802709199021D
:100EF00080919A0290919B0203E912E022E044E083
:100F0000E7D16091E6027091E7028091E80290914A
:100F1000E90204EC12E022E044E0DAD160918F02B1
:100F20007091900280919102909192020CE912E0EE
:100F300022E043E0CDD160E080E057DD86E991E03A
:100F4000D3DD83E992E0D0DD60E081E04EDD8BE926
:100F500091E0CADD84EC92E0C7DD60E082E045DD2F
:100F600080EA91E0C1DDC801BFDD1F910F910895B6
:100F7000A9DDDFDE66DF80ED33DA8093C902809180
:100F8000C9028823A9F02EDA1F9280ED8F9385EA9B
:100F900091E09F938F9386EA92E09F938F93B7D1CE
:100FA00036DF0F900F900F900F900F900F9018C09A
:100FB0001F9280ED8F938DEB91E09F938F9386EA44
:100FC00092E09F938F93A3D122DF8BE614DA80E027
:100FD00012DA08DA0F900F900F900F900F900F9089
:100FE000C5DAE9DA87E3DEDA8093D1021F928F93C4
:100FF0008AEC91E09F938F9386EA92E09F938F9380
:1010000086D105DF82E0CEDA8093D102682F60625C
:1010100082E0B9DA83E0C6DA8093D102682F606893
:1010200083E0B1DA0F900F900F900F900F900F9018
:10103000D2E0C4E062ED72E082E5F0DB8093D102A1
:10104000813029F482ED92E01BDC8093D102809103
:10105000D2028B3B01F1863E79F531DD47DC60E061
:1010600080E0C3DC8AED91E03FDD61E081E0BDDC42
:1010700086EE91E039DD60E083E0B7DC82E691E066
:1010800033DD2FE786E998E9215080409040E1F771
:1010900000C0000011C013DD37DC60E081E0A5DC9A
:1010A00083EF91E021DD2FE786E998E92150804028
:1010B0009040E1F700C000008091A10282FFBACF0A
:1010C0008091A1028B7F8093A10295B181E0892755
:1010D00085B985B18D2785B985B18C2785B9FBDEAA
:1010E000A9CFE89409C097FB3EF490958095709540
:1010F00061957F4F8F4F9F4F9923A9F0F92F96E964
:10110000BB279395F695879577956795B795F111D8
:10111000F8CFFAF4BB0F11F460FF1BC06F5F7F4F75
:101120008F4F9F4F16C0882311F096E911C0772387
:1011300021F09EE8872F762F05C0662371F096E890
:10114000862F70E060E02AF09A95660F771F881F5F
:10115000DAF7880F9695879597F908950BD078C0A0
:1011600069D028F06ED018F0952309F05AC05FC0FE
:101170001124A2C07ED0A0F3959FD1F3950F50E02B
:10118000551F629FF001729FBB27F00DB11D639F39
:10119000AA27F00DB11DAA1F649F6627B00DA11DDF
:1011A000661F829F2227B00DA11D621F739FB00D85
:1011B000A11D621F839FA00D611D221F749F3327F5
:1011C000A00D611D231F849F600D211D822F762F8E
:1011D0006A2F11249F5750408AF0E1F088234AF08B
:1011E000EE0FFF1FBB1F661F771F881F91505040D7
:1011F000A9F79E3F510570F014C05EC05F3FECF34D
:10120000983EDCF3869577956795B795F795E795C2
:101210009F5FC1F7FE2B880F911D9695879597F9D3
:10122000089597F99F6780E870E060E008959FEF68
:1012300080EC089500240A9416161706180609066D
:10124000089500240A94121613061406050608953C
:10125000092E0394000C11F4882352F0BB0F40F4C4
:10126000BF2B11F460FF04C06F5F7F4F8F4F9F4F04
:10127000089557FD9058440F551F59F05F3F71F086
:101280004795880F97FB991F61F09F3F79F08795ED
:101290000895121613061406551FF2CF4695F1DF76
:1012A00008C0161617061806991FF1CF8695710506
:1012B000610508940895E894BB2766277727CB013A
:1012C00097F90895EE0FFF1F0590F491E02D099412
:1012D000EF920F931F93CF93DF93E80147FD02C076
:1012E00034E001C034E1042E000C550B57FF03C05D
:1012F000519541955109E32E022F242FAE01F8D1CB
:10130000CE01DF91CF911F910F91EF900895AEE044
:10131000B0E0ECE8F9E0D9C40D891E8986E08C8341
:101320001A8309838FEF9FE79E838D83AE01475E0B
:101330005F4F6F89788DCE01019608D0EF81F885D7
:10134000E00FF11F10822E96E4E0DBC4ABE0B0E0CA
:10135000EBEAF9E0ACC46C017B018A01FC01178265
:101360001682838181FFBFC1CE0101963C01F60147
:101370009381F70193FD859193FF81917F018823EC
:1013800009F4ADC1853239F493FD859193FF8191C4
:101390007F01853221F4B60190E0EFD3E8CF912CA4
:1013A000212C312CFFE1F315D8F08B3279F038F491
:1013B000803279F08332A1F4232D20611DC08D325B
:1013C00061F0803369F4232D216016C0832D826083
:1013D000382EE32DE4603E2E2AC0F32DF8601DC0A8
:1013E00037FC2DC020ED280F2A3040F08E32B9F4A2
:1013F00036FC75C1232D2064322E19C036FE06C07E
:101400008AE0989E200D1124922E11C0EAE02E9EB3
:10141000200D1124222EF32DF0623F2E08C08C36B1
:1014200021F4832D8068382E02C0883641F4F701FC
:1014300093FD859193FF81917F018111B3CF982F07
:101440009F7D9554933028F40C5F1F4F9FE3998341
:101450000DC0833631F0833771F0833509F055C004
:1014600020C0F801808189830E5F1F4F88248394F8
:10147000912C530112C02801F2E04F0E511CF801CB
:10148000A080B18036FE03C0692D70E002C06FEF0E
:101490007FEFC50167D34C018201F32DFF773F2E0B
:1014A00015C0280122E0420E511CF801A080B18035
:1014B00036FE03C0692D70E002C06FEF7FEFC501FB
:1014C00046D34C01F32DF0683F2E820133FC19C046
:1014D000822D90E088169906A0F4B60180E290E093
:1014E0004CD32A94F5CFF50137FC859137FE8191D5
:1014F0005F01B60190E041D321102A9421E0821AC5
:1015000091088114910479F7E1C0843611F089368D
:1015100039F5F80137FE07C06081718182819381BE
:101520000C5F1F4F08C060817181072E000C880B73
:10153000990B0E5F1F4FF32DFF763F2E97FF09C0CB
:1015400090958095709561957F4F8F4F9F4FF06874
:101550003F2E2AE030E0A3014CD3882E861844C0E9
:10156000853731F4232D2F7EB22E2AE030E025C0BE
:10157000932D997FB92E8F36C1F018F4883579F004
:10158000AEC0803719F0883721F0A9C0E92FE0619B
:10159000BE2EB4FE0DC0FB2DF460BF2E09C034FE7C
:1015A0000AC0292F2660B22E06C028E030E005C010
:1015B00020E130E002C020E132E0F801B7FE07C0D0
:1015C00060817181828193810C5F1F4F06C06081B1
:1015D000718180E090E00E5F1F4FA3010AD3882E37
:1015E0008618FB2DFF773F2E36FE0DC0232D2E7F54
:1015F000A22E891458F434FE0BC032FC09C0832D8E
:101600008E7EA82E05C0B82CA32C03C0B82C01C018
:10161000B92CA4FE0FC0FE01E80DF11D80818033BE
:1016200021F49A2D997EA92E09C0A2FE06C0B3947A
:10163000B39404C08A2D867809F0B394A3FC10C03B
:10164000A0FE06C0B21480F4280C922C9B180DC08A
:10165000B21458F4B60180E290E08FD2B394F8CF80
:10166000B21418F42B1802C0982C212CA4FE0FC021
:10167000B60180E390E081D2A2FE16C0A1FC03C0B7
:1016800088E790E002C088E590E0B6010CC08A2DA2
:10169000867851F0A1FE02C08BE201C080E2A7FC77
:1016A0008DE2B60190E069D2891430F4B60180E38E
:1016B00090E063D29A94F8CF8A94F301E80DF11D7B
:1016C0008081B60190E059D28110F6CF222009F432
:1016D0004ECEB60180E290E050D22A94F7CFF601C8
:1016E0008681978102C08FEF9FEF2B96E2E1FBC2CC
:1016F000A9E0B0E0EDE7FBE0E0C26A01122FB02EF6
:101700002BE3201720F0FF24F394F00E02C02CE30B
:10171000F22E0F2D27E0AE014F5F5F4F40D1BC018D
:101720004981842F8970813031F0E1FC06C0E0FEF0
:1017300006C090E205C09DE203C09BE201C090E0BC
:101740005E2D507143FF3CC0911102C083E001C087
:1017500084E0811718F4212F281B01C020E05111CB
:101760000BC0F601822F30E2882319F031938150AB
:10177000FBCFC20ED11C20E0992329F0D6019C9307
:10178000F60131966F01C6010396E2FE0AC03EE4FF
:10179000D6013C9341E411964C93119712963C93D9
:1017A00006C03EE6F601308341E641833283FC0108
:1017B000322F40E2332309F442C041933150FACF33
:1017C00042FF44C0911102C083E001C084E0811750
:1017D00018F4212F281B01C020E051110BC0F60185
:1017E000822F30E2882319F031938150FBCFC20E53
:1017F000D11C20E0992329F0D6019C93F601319663
:101800006F01C6010396E2FE0BC039E4D6013C939A
:101810003EE411963C93119736E412963C9307C030
:1018200039E6F60130833EE6318336E63283FC0149
:10183000322F40E2332319F041933150FBCFFC01AA
:10184000E20FF11D10828EEF9FEFA6C021E030E085
:10185000911102C020E030E0161617061CF4FB01BF
:10186000319602C0E1E0F0E02E0F3F1FBB2021F0D7
:10187000EB2DF0E0319602C0E0E0F0E02E0F3F1FCC
:10188000E12FF0E02E173F071CF4121B212F01C09F
:1018900020E08E2D887159F4F601822F30E28823E2
:1018A00019F031938150FBCFC20ED11C20E0992357
:1018B00029F0D6019C93F60131966F0151110BC0AE
:1018C000F601822F90E3882319F091938150FBCF8A
:1018D000C20ED11C20E00F2D060F9A81342F3071DB
:1018E00044FF03C0913309F40150101624F4093069
:1018F00018F008E001C001E0AB0177FF02C040E052
:1019000050E0FB01E41BF50BA1E0B0E0AC0FBD1F04
:10191000EA0FFB1F8EE2A82E4B01801A91080B2DB7
:1019200010E01195019511094F3FBFEF5B0721F4BE
:10193000D601AC9211966D01641775072CF08416D0
:10194000950614F4818101C080E34150510931961C
:10195000D60111967D014017510724F0D6018C93D2
:101960006701E2CF6417750739F4963320F4953395
:1019700019F4311101C081E3F6018083F701822F50
:1019800090E2882319F091938150FBCFF701E20F89
:10199000F11D108280E090E02996ECE0AAC1283089
:1019A00008F027E03327DA01990F311D87FD916098
:1019B00000966105710539F432602E5F3D9330E386
:1019C0002A95E1F708959F3F30F080387105610551
:1019D00009F03C5F3C5F3D93913008F08068911DB9
:1019E000DF93CF931F930F93FF92EF92192F987F5E
:1019F0009695E92F96959695E90FFF27E859FD4FA3
:101A000099273327EE24FF24A701E70105900894C6
:101A1000079428F4360FE71EF81E491F511D660F64
:101A2000771F881F991F0694A1F70590079428F443
:101A3000E70EF81E491F561FC11D770F881F991FFB
:101A4000661F0694A1F70590079428F4F80E491F25
:101A5000561FC71FD11D880F991F661F771F069439
:101A6000A1F70590079420F4490F561FC71FD81FF0
:101A7000990F661F771F881F0694A9F78491109508
:101A8000177041F0D695C79557954795F794E79409
:101A90001A95C1F7EEE0F2E0689415901591359132
:101AA0006591959105907FE27395E118F10A430BDA
:101AB000560BC90BD009C0F7E10CF11E431F561F8E
:101AC000C91FD01D7EF4703311F48A95E6CFE894D7
:101AD000015030F0080F0AF40027021708F4202FF5
:101AE0002395022F7A3328F079E37D932A95E9F73D
:101AF00010C07D932A9589F606949795679537953A
:101B000017951794E118F10A430B560BC90BD0092E
:101B100098F023957E9173957A3308F070E37C9367
:101B20002013B8F77E9170617D9330F0839571E357
:101B30007D9370E32A95E1F71124EF90FF900F91C8
:101B40001F91CF91DF91992787FD90950895FC0112
:101B50000590615070400110D8F7809590958E0FD8
:101B60009F1F0895FC016150704001900110D8F74B
:101B7000809590958E0F9F1F08950F931F93CF937D
:101B8000DF93FB01238121FD03C08FEF9FEF2CC06A
:101B900022FF16C0468157812481358142175307A1
:101BA00044F4A081B1819D012F5F3F4F3183208399
:101BB0008C93268137812F5F3F4F3783268314C054
:101BC0008B01EC01FB010084F185E02D0995892B47
:101BD000E1F6D80116968D919C911797019617966C
:101BE0009C938E931697CE01DF91CF911F910F9109
:101BF0000895FA01AA27283051F1203181F1E894A3
:101C00006F936E7F6E5F7F4F8F4F9F4FAF4FB1E0EF
:101C10003ED0B4E03CD0670F781F891F9A1FA11DEA
:101C2000680F791F8A1F911DA11D6A0F711D811DEB
:101C3000911DA11D20D009F468943F912AE0269FB0
:101C400011243019305D3193DEF6CF010895462F0F
:101C50004770405D4193B3E00FD0C9F7F6CF462FF0
:101C60004F70405D4A3318F0495D31FD4052419359
:101C700002D0A9F7EACFB4E0A69597958795779516
:101C80006795BA95C9F700976105710508959B019D
:101C9000AC010A2E06945795479537952795BA9526
:101CA000C9F7620F731F841F951FA01D08952F92FF
:101CB0003F924F925F926F927F928F929F92AF92DC
:101CC000BF92CF92DF92EF92FF920F931F93CF9329
:101CD000DF93CDB7DEB7CA1BDB0B0FB6F894DEBFC0
:101CE0000FBECDBF09942A88398848885F846E84E6
:101CF0007D848C849B84AA84B984C884DF80EE8030
:101D0000FD800C811B81AA81B981CE0FD11D0FB638
:101D1000F894DEBF0FBECDBFED010895F894FFCF5C
:101D20000D0A205045444F4D4554524F200D0A0096
:101D30003131343032303540697365702E697070DE
:101D40002E7074202D20416E647265204D61727179
:101D50007565730D0A0A0031313431323836406905
:101D60007365702E6970702E7074202D2054686F0A
:101D700072204A6F73652053747275636B0D0A0A83
:101D8000002020416E647265204D6172717565732B
:101D90000020204E273A20003131343032303500D7
:101DA000202054686F722053747275636B00313158
:101DB00034313238360061783D200061793D2000B1
:101DC000617A3D200046616C686F75206F20656EFA
:101DD00064657265636F2025640D0A0A00454E54E0
:101DE000524F552025640D0A0A005549442074615C
:101DF00067203D202564200D0A002020202041631B
:101E00006573736F2000204175746F72697A616425
:101E10006F20002041636573736F204E65676164B6
:021E20006F0051
:0400000300000D32BA
:00000001FF
